{
  "_format": "hh-sol-artifact-1",
  "contractName": "CertificateRegistry",
  "sourceName": "contract/CertificateRegistry.sol",
  "abi": [
    {
      "inputs": [],
      "stateMutability": "nonpayable",
      "type": "constructor"
    },
    {
      "anonymous": false,
      "inputs": [
        {
          "indexed": true,
          "internalType": "string",
          "name": "certificateId",
          "type": "string"
        },
        {
          "indexed": false,
          "internalType": "string",
          "name": "certificateHash",
          "type": "string"
        },
        {
          "indexed": false,
          "internalType": "string",
          "name": "studentName",
          "type": "string"
        },
        {
          "indexed": false,
          "internalType": "string",
          "name": "course",
          "type": "string"
        },
        {
          "indexed": true,
          "internalType": "address",
          "name": "issuerAddress",
          "type": "address"
        },
        {
          "indexed": false,
          "internalType": "uint256",
          "name": "issuedAt",
          "type": "uint256"
        }
      ],
      "name": "CertificateIssued",
      "type": "event"
    },
    {
      "anonymous": false,
      "inputs": [
        {
          "indexed": true,
          "internalType": "string",
          "name": "certificateId",
          "type": "string"
        },
        {
          "indexed": true,
          "internalType": "address",
          "name": "issuerAddress",
          "type": "address"
        },
        {
          "indexed": false,
          "internalType": "uint256",
          "name": "revokedAt",
          "type": "uint256"
        }
      ],
      "name": "CertificateRevoked",
      "type": "event"
    },
    {
      "anonymous": false,
      "inputs": [
        {
          "indexed": true,
          "internalType": "string",
          "name": "certificateId",
          "type": "string"
        },
        {
          "indexed": false,
          "internalType": "string",
          "name": "previousCertificateHash",
          "type": "string"
        },
        {
          "indexed": false,
          "internalType": "string",
          "name": "nextCertificateHash",
          "type": "string"
        },
        {
          "indexed": false,
          "internalType": "string",
          "name": "studentName",
          "type": "string"
        },
        {
          "indexed": false,
          "internalType": "string",
          "name": "course",
          "type": "string"
        },
        {
          "indexed": true,
          "internalType": "address",
          "name": "issuerAddress",
          "type": "address"
        },
        {
          "indexed": false,
          "internalType": "uint256",
          "name": "updatedAt",
          "type": "uint256"
        }
      ],
      "name": "CertificateUpdated",
      "type": "event"
    },
    {
      "inputs": [
        {
          "internalType": "string",
          "name": "certificateHash",
          "type": "string"
        },
        {
          "internalType": "string",
          "name": "certificateId",
          "type": "string"
        },
        {
          "internalType": "string",
          "name": "studentName",
          "type": "string"
        },
        {
          "internalType": "string",
          "name": "course",
          "type": "string"
        }
      ],
      "name": "issueCertificate",
      "outputs": [],
      "stateMutability": "nonpayable",
      "type": "function"
    },
    {
      "inputs": [],
      "name": "owner",
      "outputs": [
        {
          "internalType": "address",
          "name": "",
          "type": "address"
        }
      ],
      "stateMutability": "view",
      "type": "function"
    },
    {
      "inputs": [
        {
          "internalType": "string",
          "name": "certificateId",
          "type": "string"
        }
      ],
      "name": "revokeCertificate",
      "outputs": [],
      "stateMutability": "nonpayable",
      "type": "function"
    },
    {
      "inputs": [
        {
          "internalType": "string",
          "name": "certificateId",
          "type": "string"
        },
        {
          "internalType": "string",
          "name": "nextCertificateHash",
          "type": "string"
        },
        {
          "internalType": "string",
          "name": "studentName",
          "type": "string"
        },
        {
          "internalType": "string",
          "name": "course",
          "type": "string"
        }
      ],
      "name": "updateCertificate",
      "outputs": [],
      "stateMutability": "nonpayable",
      "type": "function"
    },
    {
      "inputs": [
        {
          "internalType": "string",
          "name": "certificateId",
          "type": "string"
        }
      ],
      "name": "verifyCertificate",
      "outputs": [
        {
          "internalType": "string",
          "name": "certificateHash",
          "type": "string"
        },
        {
          "internalType": "string",
          "name": "storedCertificateId",
          "type": "string"
        },
        {
          "internalType": "string",
          "name": "studentName",
          "type": "string"
        },
        {
          "internalType": "string",
          "name": "course",
          "type": "string"
        },
        {
          "internalType": "address",
          "name": "issuerAddress",
          "type": "address"
        },
        {
          "internalType": "uint256",
          "name": "issuedAt",
          "type": "uint256"
        },
        {
          "internalType": "bool",
          "name": "revoked",
          "type": "bool"
        },
        {
          "internalType": "bool",
          "name": "exists",
          "type": "bool"
        }
      ],
      "stateMutability": "view",
      "type": "function"
    }
  ],
  "bytecode": "0x60a060405234801561001057600080fd5b503373ffffffffffffffffffffffffffffffffffffffff1660808173ffffffffffffffffffffffffffffffffffffffff1681525050608051611aa461007560003960008181610107015281816103220152818161070b0152610e480152611aa46000f3fe608060405234801561001057600080fd5b50600436106100575760003560e01c8063142e15421461005c5780633bd3bc5014610078578063818a2994146100945780638b23d875146100b05780638da5cb5b146100e7575b600080fd5b61007660048036038101906100719190610fc4565b610105565b005b610092600480360381019061008d919061100d565b610320565b005b6100ae60048036038101906100a9919061100d565b610709565b005b6100ca60048036038101906100c59190610fc4565b610aeb565b6040516100de9897969594939291906111d8565b60405180910390f35b6100ef610e46565b6040516100fc9190611272565b60405180910390f35b7f000000000000000000000000000000000000000000000000000000000000000073ffffffffffffffffffffffffffffffffffffffff163373ffffffffffffffffffffffffffffffffffffffff1614610193576040517f08c379a000000000000000000000000000000000000000000000000000000000815260040161018a906112d9565b60405180910390fd5b60008151116101d7576040517f08c379a00000000000000000000000000000000000000000000000000000000081526004016101ce90611345565b60405180910390fd5b600080826040516101e891906113a1565b908152602001604051809103902090508060060160019054906101000a900460ff16610249576040517f08c379a000000000000000000000000000000000000000000000000000000000815260040161024090611404565b60405180910390fd5b8060060160009054906101000a900460ff161561029b576040517f08c379a000000000000000000000000000000000000000000000000000000000815260040161029290611470565b60405180910390fd5b60018160060160006101000a81548160ff0219169083151502179055503373ffffffffffffffffffffffffffffffffffffffff16826040516102dd91906113a1565b60405180910390207f47958cdd7f8a583eead77c76bf001a8af1605d4494014e49cf9cffbe4f8240cd426040516103149190611490565b60405180910390a35050565b7f000000000000000000000000000000000000000000000000000000000000000073ffffffffffffffffffffffffffffffffffffffff163373ffffffffffffffffffffffffffffffffffffffff16146103ae576040517f08c379a00000000000000000000000000000000000000000000000000000000081526004016103a5906112d9565b60405180910390fd5b60008451116103f2576040517f08c379a00000000000000000000000000000000000000000000000000000000081526004016103e990611345565b60405180910390fd5b6000835111610436576040517f08c379a000000000000000000000000000000000000000000000000000000000815260040161042d906114f7565b60405180910390fd5b600082511161047a576040517f08c379a000000000000000000000000000000000000000000000000000000000815260040161047190611563565b60405180910390fd5b60008151116104be576040517f08c379a00000000000000000000000000000000000000000000000000000000081526004016104b5906115cf565b60405180910390fd5b600080856040516104cf91906113a1565b908152602001604051809103902090508060060160019054906101000a900460ff16610530576040517f08c379a000000000000000000000000000000000000000000000000000000000815260040161052790611404565b60405180910390fd5b8060060160009054906101000a900460ff1615610582576040517f08c379a00000000000000000000000000000000000000000000000000000000081526004016105799061163b565b60405180910390fd5b60008160000180546105939061168a565b80601f01602080910402602001604051908101604052809291908181526020018280546105bf9061168a565b801561060c5780601f106105e15761010080835404028352916020019161060c565b820191906000526020600020905b8154815290600101906020018083116105ef57829003601f168201915b50505050509050848260000190816106249190611867565b50838260020190816106369190611867565b50828260030190816106489190611867565b50338260040160006101000a81548173ffffffffffffffffffffffffffffffffffffffff021916908373ffffffffffffffffffffffffffffffffffffffff1602179055504282600501819055503373ffffffffffffffffffffffffffffffffffffffff16866040516106ba91906113a1565b60405180910390207f706ff599d8db3057e9c4674892d3685a92c771909234d806394c2bd99e071a0483888888426040516106f9959493929190611939565b60405180910390a3505050505050565b7f000000000000000000000000000000000000000000000000000000000000000073ffffffffffffffffffffffffffffffffffffffff163373ffffffffffffffffffffffffffffffffffffffff1614610797576040517f08c379a000000000000000000000000000000000000000000000000000000000815260040161078e906112d9565b60405180910390fd5b60008451116107db576040517f08c379a00000000000000000000000000000000000000000000000000000000081526004016107d2906114f7565b60405180910390fd5b600083511161081f576040517f08c379a000000000000000000000000000000000000000000000000000000000815260040161081690611345565b60405180910390fd5b6000825111610863576040517f08c379a000000000000000000000000000000000000000000000000000000000815260040161085a90611563565b60405180910390fd5b60008151116108a7576040517f08c379a000000000000000000000000000000000000000000000000000000000815260040161089e906115cf565b60405180910390fd5b600080846040516108b891906113a1565b908152602001604051809103902090508060060160019054906101000a900460ff161561091a576040517f08c379a0000000000000000000000000000000000000000000000000000000008152600401610911906119f4565b60405180910390fd5b6040518061010001604052808681526020018581526020018481526020018381526020013373ffffffffffffffffffffffffffffffffffffffff1681526020014281526020016000151581526020016001151581525060008560405161098091906113a1565b908152602001604051809103902060008201518160000190816109a39190611867565b5060208201518160010190816109b99190611867565b5060408201518160020190816109cf9190611867565b5060608201518160030190816109e59190611867565b5060808201518160040160006101000a81548173ffffffffffffffffffffffffffffffffffffffff021916908373ffffffffffffffffffffffffffffffffffffffff16021790555060a0820151816005015560c08201518160060160006101000a81548160ff02191690831515021790555060e08201518160060160016101000a81548160ff0219169083151502179055509050503373ffffffffffffffffffffffffffffffffffffffff1684604051610a9f91906113a1565b60405180910390207fa590c478c11eae83022aa3c1af0b90085ef1374166521d82ecb31cb0e5efac2c87868642604051610adc9493929190611a14565b60405180910390a35050505050565b6060806060806000806000806000808a604051610b0891906113a1565b908152602001604051809103902060405180610100016040529081600082018054610b329061168a565b80601f0160208091040260200160405190810160405280929190818152602001828054610b5e9061168a565b8015610bab5780601f10610b8057610100808354040283529160200191610bab565b820191906000526020600020905b815481529060010190602001808311610b8e57829003601f168201915b50505050508152602001600182018054610bc49061168a565b80601f0160208091040260200160405190810160405280929190818152602001828054610bf09061168a565b8015610c3d5780601f10610c1257610100808354040283529160200191610c3d565b820191906000526020600020905b815481529060010190602001808311610c2057829003601f168201915b50505050508152602001600282018054610c569061168a565b80601f0160208091040260200160405190810160405280929190818152602001828054610c829061168a565b8015610ccf5780601f10610ca457610100808354040283529160200191610ccf565b820191906000526020600020905b815481529060010190602001808311610cb257829003601f168201915b50505050508152602001600382018054610ce89061168a565b80601f0160208091040260200160405190810160405280929190818152602001828054610d149061168a565b8015610d615780601f10610d3657610100808354040283529160200191610d61565b820191906000526020600020905b815481529060010190602001808311610d4457829003601f168201915b505050505081526020016004820160009054906101000a900473ffffffffffffffffffffffffffffffffffffffff1673ffffffffffffffffffffffffffffffffffffffff1673ffffffffffffffffffffffffffffffffffffffff168152602001600582015481526020016006820160009054906101000a900460ff161515151581526020016006820160019054906101000a900460ff1615151515815250509050806000015181602001518260400151836060015184608001518560a001518660c001518760e001519850985098509850985098509850985050919395975091939597565b7f000000000000000000000000000000000000000000000000000000000000000081565b6000604051905090565b600080fd5b600080fd5b600080fd5b600080fd5b6000601f19601f8301169050919050565b7f4e487b7100000000000000000000000000000000000000000000000000000000600052604160045260246000fd5b610ed182610e88565b810181811067ffffffffffffffff82111715610ef057610eef610e99565b5b80604052505050565b6000610f03610e6a565b9050610f0f8282610ec8565b919050565b600067ffffffffffffffff821115610f2f57610f2e610e99565b5b610f3882610e88565b9050602081019050919050565b82818337600083830152505050565b6000610f67610f6284610f14565b610ef9565b905082815260208101848484011115610f8357610f82610e83565b5b610f8e848285610f45565b509392505050565b600082601f830112610fab57610faa610e7e565b5b8135610fbb848260208601610f54565b91505092915050565b600060208284031215610fda57610fd9610e74565b5b600082013567ffffffffffffffff811115610ff857610ff7610e79565b5b61100484828501610f96565b91505092915050565b6000806000806080858703121561102757611026610e74565b5b600085013567ffffffffffffffff81111561104557611044610e79565b5b61105187828801610f96565b945050602085013567ffffffffffffffff81111561107257611071610e79565b5b61107e87828801610f96565b935050604085013567ffffffffffffffff81111561109f5761109e610e79565b5b6110ab87828801610f96565b925050606085013567ffffffffffffffff8111156110cc576110cb610e79565b5b6110d887828801610f96565b91505092959194509250565b600081519050919050565b600082825260208201905092915050565b60005b8381101561111e578082015181840152602081019050611103565b60008484015250505050565b6000611135826110e4565b61113f81856110ef565b935061114f818560208601611100565b61115881610e88565b840191505092915050565b600073ffffffffffffffffffffffffffffffffffffffff82169050919050565b600061118e82611163565b9050919050565b61119e81611183565b82525050565b6000819050919050565b6111b7816111a4565b82525050565b60008115159050919050565b6111d2816111bd565b82525050565b60006101008201905081810360008301526111f3818b61112a565b90508181036020830152611207818a61112a565b9050818103604083015261121b818961112a565b9050818103606083015261122f818861112a565b905061123e6080830187611195565b61124b60a08301866111ae565b61125860c08301856111c9565b61126560e08301846111c9565b9998505050505050505050565b60006020820190506112876000830184611195565b92915050565b7f4f6e6c79206f776e657200000000000000000000000000000000000000000000600082015250565b60006112c3600a836110ef565b91506112ce8261128d565b602082019050919050565b600060208201905081810360008301526112f2816112b6565b9050919050565b7f6365727469666963617465496420726571756972656400000000000000000000600082015250565b600061132f6016836110ef565b915061133a826112f9565b602082019050919050565b6000602082019050818103600083015261135e81611322565b9050919050565b600081905092915050565b600061137b826110e4565b6113858185611365565b9350611395818560208601611100565b80840191505092915050565b60006113ad8284611370565b915081905092915050565b7f4365727469666963617465206e6f7420666f756e640000000000000000000000600082015250565b60006113ee6015836110ef565b91506113f9826113b8565b602082019050919050565b6000602082019050818103600083015261141d816113e1565b9050919050565b7f436572746966696361746520616c7265616479207265766f6b65640000000000600082015250565b600061145a601b836110ef565b915061146582611424565b602082019050919050565b600060208201905081810360008301526114898161144d565b9050919050565b60006020820190506114a560008301846111ae565b92915050565b7f6365727469666963617465486173682072657175697265640000000000000000600082015250565b60006114e16018836110ef565b91506114ec826114ab565b602082019050919050565b60006020820190508181036000830152611510816114d4565b9050919050565b7f73747564656e744e616d65207265717569726564000000000000000000000000600082015250565b600061154d6014836110ef565b915061155882611517565b602082019050919050565b6000602082019050818103600083015261157c81611540565b9050919050565b7f636f757273652072657175697265640000000000000000000000000000000000600082015250565b60006115b9600f836110ef565b91506115c482611583565b602082019050919050565b600060208201905081810360008301526115e8816115ac565b9050919050565b7f4365727469666963617465207265766f6b656400000000000000000000000000600082015250565b60006116256013836110ef565b9150611630826115ef565b602082019050919050565b6000602082019050818103600083015261165481611618565b9050919050565b7f4e487b7100000000000000000000000000000000000000000000000000000000600052602260045260246000fd5b600060028204905060018216806116a257607f821691505b6020821081036116b5576116b461165b565b5b50919050565b60008190508160005260206000209050919050565b60006020601f8301049050919050565b600082821b905092915050565b60006008830261171d7fffffffffffffffffffffffffffffffffffffffffffffffffffffffffffffffff826116e0565b61172786836116e0565b95508019841693508086168417925050509392505050565b6000819050919050565b600061176461175f61175a846111a4565b61173f565b6111a4565b9050919050565b6000819050919050565b61177e83611749565b61179261178a8261176b565b8484546116ed565b825550505050565b600090565b6117a761179a565b6117b2818484611775565b505050565b5b818110156117d6576117cb60008261179f565b6001810190506117b8565b5050565b601f82111561181b576117ec816116bb565b6117f5846116d0565b81016020851015611804578190505b611818611810856116d0565b8301826117b7565b50505b505050565b600082821c905092915050565b600061183e60001984600802611820565b1980831691505092915050565b6000611857838361182d565b9150826002028217905092915050565b611870826110e4565b67ffffffffffffffff81111561188957611888610e99565b5b611893825461168a565b61189e8282856117da565b600060209050601f8311600181146118d157600084156118bf578287015190505b6118c9858261184b565b865550611931565b601f1984166118df866116bb565b60005b82811015611907578489015182556001820191506020850194506020810190506118e2565b868310156119245784890151611920601f89168261182d565b8355505b6001600288020188555050505b505050505050565b600060a0820190508181036000830152611953818861112a565b90508181036020830152611967818761112a565b9050818103604083015261197b818661112a565b9050818103606083015261198f818561112a565b905061199e60808301846111ae565b9695505050505050565b7f436572746966696361746520616c726561647920657869737473000000000000600082015250565b60006119de601a836110ef565b91506119e9826119a8565b602082019050919050565b60006020820190508181036000830152611a0d816119d1565b9050919050565b60006080820190508181036000830152611a2e818761112a565b90508181036020830152611a42818661112a565b90508181036040830152611a56818561112a565b9050611a6560608301846111ae565b9594505050505056fea2646970667358221220a726c3c52293f4d9a2134bcbe2b5906e01cdc642a15dc2a2560ac915c97ee2b664736f6c63430008140033",
  "linkReferences": {},
  "deployedLinkReferences": {}
}